:040000006F10005E1F
:100004000000000000000000900000209C10002070
:10001400A9BDF9F5940000200000000000000000D4
:10002400960000209800002000000000000000005E
:100034007AF90000000000009C000020000000008D
:100044009E000020940B0020D4040020A400002073
:10005400A6000020A8000020C6000020AC0000205C
:10006400AE000020B000002026040020F40200208E
:10007400700B0020B8000020FC060020BC0000200B
:10008400BE000020C0000020C20000202C0B002075
:1000940001A001A001A001A001A001A001A001A054
:1000A40001A001A001A001A001A001A001A001A044
:1000B40001A001A001A001A001A001A001A001A034
:1000C40001A001A001A03787004083476700918BFE
:1000D40091C7238C018491472303F700B78700401D
:1000E40003C76700098B6305070E03C777009306F0
:1000F4000003137707036303D7080547238CE184C0
:1001040003C891871386C186B30606012380E600DF
:1001140083C5770013874187429793F5F50F230032
:10012400B70003C5870093850187C2951375F50F42
:100134002380A5000347070089451377F703630E5F
:10014400B70A63E9E508630007188545630AB71031
:1001540083C791873307F600034707001377F70F28
:1001640009CB850793F7F70F0D47636FF716A38C39
:10017400F186B787004009472383E700B78700402B
:1001840083C77700E207E18763D4070483C79187B5
:100194001387C1863E9785462300D700138741877E
:1001A4003E97930600032300D700138701873E97E9
:1001B400A14685072300D70093F7F70F0D4763681F
:1001C400F712A38CF186B787004009472383E70021
:1001D40073002030930610026308D70C93062002A4
:1001E4006301D70693060002E314D7F603C7270278
:1001F4001377C70F13672700D5A003C767001377CA
:10020400070465C303C7A702138881B4138581ACAF
:10021400134707082385E70203C7A7021377370F9D
:10022400136787002385E702814713070004B3059A
:10023400F5008C41B306F80091078CC2E399E7FE00
:1002440001BF03C7A702134707042385E70203C7B7
:10025400A7021377C70F136727002385E702CDBDD5
:1002640003C76700137707042DCF03C767021388FA
:1002740081A8138581A4134707082383E70203C7D2
:1002840067021377370F136787002383E7028147D9
:1002940013070004B305F5008C41B306F800910779
:1002A4008CC2E399E7FE6DB503C7670213470704E1
:1002B4002383E70203C767021377C70F1367270077
:1002C4002383E70271B503C767001377070411CBD3
:1002D40003C727021377370F136787002381E702C9
:1002E40085BD23800600ADB5A38C018659B5A38CCA
:1002F4000186D1BD37370040834747409146BD8BC7
:100304006389D7009946639ED7108347574073008B
:100314002030411126C485442383918622C64AC2D3
:10032400034487409747000083C7A7151374F40F4D
:10033400BDE303D7A186971700009387E7493E974B
:1003440083D6A18623008700B69783C60700A947F2
:100354001387A1866390F602835707008507171752
:1003640000002313F75897170000A380975823958C
:10037400018621A88357070085072395F1868357B3
:1003840007001307F00FE364F7FE3244A244124956
:100394004101730020309747000083C7270EF5D72B
:1003A40097B001E0E780008F856793878738E3CEB5
:1003B400A7FC83D78186138941D6CA9723808700F7
:1003C40083D7818685071385C1D42394F1869750FA
:1003D40000E0E780C0B21385C1D4975000E0E78005
:1003E400E09D03D781869307F003E3F0E7FA1385D2
:1003F400C1D4975000E0E78080B0A38291869387B0
:10040400818683D70700CA85138581D0239BF18415
:1004140003D6618597F001E0E780201523940186D7
:10042400ADB773002030B736004083C7460011478C
:10043400BD8B6389E70019476394E70083C75600BF
:10044400730020309387C185904383C686001717B5
:1004540000001307673832972300D74698430507EF
:1004640023AEE18490430D47BE86E35BC7FC971738
:10047400000083C7777C19476368F700154763F862
:10048400E70489EF0147A9A03D47E3EDE7FE4147B3
:100494006376F70013071004E396E7FE971700004E
:1004A40083C7A779138757009442E3CBE6F89726CE
:1004B4000000239BE688172700002308F788854758
:1004C40017270000A303F78823AE018495BF2147B3
:1004D4008147D9BF411122C697F000E0E780406C04
:1004E4009387018A9C4313073006B307F54063746E
:1004F400F706371700408356E709835727092A84EC
:10050400F58F13971701635607049747000083C7B5
:10051400A71981C78547A38AF18A174700000347B3
:1005240077088547631DF700974700009387C7EF57
:1005340083A787178507174700002323F706B717F4
:1005440000401167239FE7080145978001E0E78099
:1005540060DC23A0818A97F000E0E78060649387E1
:10056400418A9C43130730062A84B307F54063731A
:10057400F706371700408356E70983572709F58F95
:10058400C207C18763D607041747000003479703D0
:100594008547631DF700974700009387E7E883A723
:1005A4008719850717470000232CF7009747000099
:1005B40083C7471081C78947A38AF18AB7170040C8
:1005C4006177239FE7080545978001E0E78080D4A1
:1005D40023A2818A97F000E0E780805C9387818A78
:1005E4009C43130730062A84B307F5406371F7066A
:1005F400371700408356E70983572709F58F858B02
:10060400A9C7174700000347F7FD8547631DF70097
:1006140097470000938747E183A7871B8507174700
:100624000000232FF7FA9747000083C7670981C7A3
:100634008D47A38AF18AB71700400547239FE7082F
:100644000945978001E0E780E0CC23A4818A97F0F4
:1006540000E0E780E0549387C18A9C431307300687
:100664002A84B307F5406371F706371700408356B1
:10067400E70983572709F58FA18BA9C717470000FE
:10068400034757F88547631DF70097470000938792
:10069400A7D983A7871D8507174700002322F7F6EC
:1006A4009747000083C7870281C79147A38AF18ACD
:1006B400B71700402147239FE7080D45978001E0C5
:1006C400E78040C523A6818A371700408356E7098F
:1006D40083572709F58F93F7072089CF83C7D18CD8
:1006E40081E78547A386F18CB717004013070020E4
:1006F400239FE7083244410173002030411122C690
:1007040026C44AC2974001E0E780E0EC9317F50065
:100714002A849374054063D007269377150099C7FC
:1007240003C5118C974001E0E78040D29317D400B1
:1007340063DE070EB707040093876708E18F95CB44
:1007440083C7E18B03C7F18B63F7E7089387E18BDA
:1007540083C7070093F7F70F13871700238FE18AE6
:10076400138701EFBA9703C50700974001E0E780BC
:10077400E0CD9DC03705001013050540974001E00A
:10078400E780C0E68D47238EF18A0545A382018C5C
:10079400974001E0E78060C59377041099CF130573
:1007A4000010974001E0E78060E40545974001E0D0
:1007B400E780A0C39547238EF18A93770420638151
:1007C400072213050020974001E0E78020E29147CB
:1007D400238EF18A31A483C7018C89CB0545A3827A
:1007E400018C974001E0E78040C061B785478145AF
:1007F40013050040A38EF18A974001E0E78020C3EF
:10080400814513050020974001E0E78040C28145FF
:1008140013050010974001E0E78060C1054597404B
:1008240001E0E78060BAA382018CA1B7937724002A
:1008340089CB83C7F18BE1C30545974001E0E7808D
:10084400E0BC937704049DCB03C9E18B93071900A3
:10085400238FF18A974001E0E780E0BF938701EF9F
:10086400CA972380A70003C7F18B83C7E18B63FD7D
:10087400E7080545974001E0E78040B9E38E04F0BE
:100884003705001013050540974001E0E78000D6C6
:1008940083C4E18B93871400238FF18A974001E08E
:1008A400E78060BB938701EFA6972380A70083C7E7
:1008B400018CE39C07EC8547814513050040A38E1A
:1008C400F18A974001E0E78080B681451305002056
:1008D400974001E0E780A0B58145130500109740DB
:1008E40001E0E780C0B40545974001E0E780C0AD72
:1008F400A382018C55B50145974001E0E78000B122
:1009040085472383F18C35BF0145974001E0E7809B
:10091400E0AF83C7618CA1CF2383018C83C7018C93
:1009240089CB0545974001E0E78020ACA382018C88
:10093400B1B78547814513050040A38EF18A9740DE
:1009440001E0E780C0AE814513050020974001E037
:10095400E780E0AD814513050010974001E0E78092
:1009640000AD0545974001E0E78000A6C1B7854783
:100974002383F18C21B7937725008DCBB70704002F
:1009840093870708E98FE1C79147A382F18CA3817C
:10099400018C2382018C9387818C9C4381CB9C4363
:1009A40091C79385418C138501F382979317D400E3
:1009B40063D5070E0545974001E0E78020A5D1CC1B
:1009C4003705001013050540974001E0E78000C299
:1009D4000545974001E0E78060A30144A382018CB0
:1009E400056513050580B377A40081CB974001E02A
:1009F400E780C0BF9947238EF18A9317340163DAE5
:100A040007000565974001E0E78040BE9D47238EBF
:100A1400F18A9317140163DA07001165974001E026
:100A2400E780C0BCA147238EF18A9317040163DADF
:100A340007002165974001E0E78040BBA547238E6E
:100A4400F18A3244A24412494101730020308D4797
:100A5400A382F18C2381018C91BF93774408E38DA9
:100A640007D283C7318C03C7418C1305F00F63F1A0
:100A7400E7029387318C83C7070093F7F70F138737
:100A84001700A381E18C138701F3BA9703C507000C
:100A9400974001E0E780809B01B3937704049DCFE6
:100AA40003C7218CFD47014563E6E7029387218C48
:100AB40003C907001379F90F930719002381F18CF7
:100AC400974001E0E7802099938701F13E99230044
:100AD400A9000545974001E0E7804093937704011E
:100AE40095C7375700408357078093E717002310B3
:100AF400F7809387818C9C4381CBDC4391C783C56A
:100B0400218C138501F182972381018CE38604C82B
:100B14003705001013050540974001E0E78000AD5C
:100B24000545974001E0E780608EBDB1974001E044
:100B3400E78060DB83C7618F8507238BF18E03C752
:100B4400618FC14763F4E702174502E0130585EAA4
:100B5400979001E0E780E03613054006512B0545E8
:100B6400974001E0E780A0D4238B018E73002030EE
:100B7400B7170040130700032388E70297370000E4
:100B840023A8072AA3880196974000E0E780802ED7
:100B940073002030411122C6371400400357C409A2
:100BA40083570409F98F93F7070891CB9387C1976B
:100BB4009C430145829793070008231EF40832449E
:100BC40041017300203041118146014681451145A0
:100BD40006C6B925B727004011472383E780B7F736
:100BE40000E003A707D16D9B23A8E7D003A707D193
:100BF4005D9B23A8E7D07300501001000100B240B0
:100C0400410182804111814681450146114506C654
:100C1400012DB727004011472383E780B717004011
:100C240003C7E70283C5E70483D787039166137775
:100C3400F70F93E5350063E5D700719B1367170041
:100C4400B7170040130670052380C704930680FA83
:100C54002380D70401000100238207022380C704F4
:100C64002380D704010001002387E7022387B70408
:100C74002380C7042380D7040100010003C7B704FD
:100C840013670702A385E7042380070437F700E00E
:100C9400832507D193E545002328B7D0832507D1C1
:100CA400DD992328B7D07300501001000100238080
:100CB400C7042380D7040100010003C7B7041377D6
:100CC400F70DA385E70423800704B2404101828025
:100CD4000111B717004006CE22CC26CA4AC883C6E3
:100CE400E70203C8E70483D78703116793F6F60F77
:100CF4001368380063E5E700F19A93E61600B71726
:100D04000040930570052380B704130680FA2380FE
:100D1400C70401000100238207022380B704238053
:100D2400C704010001002387D70223870705238016
:100D3400070437F800E0832608D193E64600232809
:100D4400D8D003D7070213770760498F657511055B
:100D5400498F4207418301002380B7042380C704DD
:100D64000100010083C6F70037F40700B7F400E080
:100D740093E60604A387D70083C6B7046104130966
:100D8400F00F93E60602A385D7042390E70283A716
:100D940004D1DD9B23A8F4D073005010010001009E
:100DA400130560043D2E81463000A285194502C416
:100DB40023160100B5218347D100E38A27FDB71725
:100DC4000040130770052380E704130780FA23808B
:100DD400E7040100010003C7B7041377F70DA385E7
:100DE400E70423800704F2406244D2444249056187
:100DF400828001114EC681460146AA89814511456A
:100E040006CE22CC26CA4AC82129B716004083C779
:100E1400E60203C7E60483D68603116693F7F70F49
:100E24001367370063E5C600F19B93E71700371497
:100E340000401309700523002405930480FA23005D
:100E4400940401000100230204022300240523006A
:100E54009404010001002307F4022307E40423009F
:100E64000404130550025920B7F700E003A707D183
:100E74001367470023A8E7D0230024052300940424
:100E8400010001000347F40013670704A307E4000B
:100E94002300240523009404010001002567B3E91D
:100EA400E9002310340303A707D15D9B23A8E7D0EF
:100EB400730050100100010081460146814511452F
:100EC40085262300240523009404010001008347A0
:100ED400640493E717002303F40423000404F2409A
:100EE4006244D2444249B24905618280B717004046
:100EF400930670052380D704130780FA2380E70440
:100F04000100010003C6B7041376F60DA385C704D8
:100F140023800704137605024DC203C6A700118A75
:100F24001DE22380D7042380E7040100010003C7E6
:100F3400A700136747002385E7009307004B0100D0
:100F44000100FD17EDFFB7170040930670052380DD
:100F5400D704130780FA2380E704010001007D8988
:100F64002394A7000100010001000100238007046D
:100F74002380D7042380E70401000100010001005D
:100F84003727004093061005A303D7802380070466
:100F9400B7170040130770052380E704130780FA8E
:100FA4002380E7040100010003C7B704136707089F
:100FB400A385E7042380070482801376050441C6D1
:100FC40003C6A700418A1DE22380D7042380E704D7
:100FD4000100010003C7A700136707012385E70089
:100FE4009307007D01000100FD17EDFFB7170040D6
:100FF400930670052380D704130780FA2380E7043F
:10100400010001001376F501136606042394C7005A
:101014000100010001000100238007042380D7049C
:10102400130660042380E7046318C500010001006F
:1010340037270040894689BF010001003727004057
:101044009306200591B72380D7042380E704010089
:10105400010003D787001367070C2394E7000DBF33
:101064004111814601468145114506C6552AB717E7
:101074000040130770052380E704130780FA2380D8
:10108400E7040100010003C7670413671700238303
:10109400E70423800704B24041018280814601466F
:1010A40081451145B52AB717004093067005238082
:1010B400D704130780FA2380E704010001007D565A
:1010C4002396C7022380D7042380E704010001008C
:1010D40003C76704136717002383E7042380070407
:1010E40001A0BD473305F50201007D1575FD828021
:1010F400411122C426C206C6AA840144631794007F
:10110400B240224492444101828005041305803E8A
:101114004204C13F4180DDB7411106C69306004039
:10112400014681450545ED2875F98146014681450D
:101134001145FD20B7170040130770052380E7040D
:10114400130780FA2380E704010001007D572396EA
:10115400E70203C76704136717002383E7042380A8
:10116400070401A02303048015472303E48001003E
:101174002302A480828083076480E3CE07FE2303D6
:101184000480828083076480E3CE07FE03454480A5
:10119400828083076480E3CE07FE2302A4808280DA
:1011A400411126C44AC24EC006C61377F50BAD479B
:1011B400AA892E8995446306F70019456537653F6A
:1011C4008D444E854537FD59FD1463983401B24072
:1011D400A2441249824941018280135509011375C1
:1011E400F50F453F2209CDB7011126CC06CEB70431
:1011F400080051371545BD37713769372AC6A53FF1
:1012040032459377150089EB136515001375F50FB7
:10121400F240E24405618280FD14E9FC0145CDBF42
:10122400397126DC4ADA4ED852D656D45AD25ED018
:1012340006DE62CE66CCB7E700E07D5783AA0700DE
:1012440022C603AA470023A0E71823A2E718B7176A
:101254000040130770052380E704130780FA2380F6
:10126400E70483C74704930B75FFB684E20793FB37
:10127400FB0F8546AA892E8B328937240040E187EB
:10128400015763FA76016308D50089461307000203
:101294006313D5000157D98F93F7F70FB71C00409C
:1012A4002382FC0411472303E4801305F00F5D3D02
:1012B400094CD135636D7C11B7050700DA95378782
:1012C4000700795563F2E504B3879500636EF7026E
:1012D400370B0800A94733EB65016399F90689E4E4
:1012E4008144513D26850DA0DA850945553D050902
:1012F4000345F9FFFD14050B693D81C49377FB0F8A
:10130400FDF7DD3569FD7D55B717004013077005FE
:101314002380E704130780FA2380E70403C7470404
:10132400418B2382E704F250B7E700E023A0571172
:1013340023A24711E25432445259C259325AA25A92
:10134400125B825B724CE24C21618280A5476395FB
:10135400F90685691309F00FB3069900B3742B01DC
:10136400B6941349F9FFB3749900856B3379690115
:10137400416B9387F9FFB3F7270199E363FC3401C9
:1013840093D94900C147E3E637FF99BF0569C169AD
:101394007D19D9B71305800D63886901130500020F
:1013A4006384790113051008CA85DD3B353D21DDD1
:1013B4004E99B3843441D9B7DA852D45D533CA94CF
:1013C400E30099F205097D3BA30FA9FED5BF9387DE
:1013D400F9FF93F7F70F6361FC0C83C71C04130731
:1013E4003008631FF70437070800636BEB04B30787
:1013F4009B00B706100063F5D704334BEB00894715
:101404006393F9068980D549E38C04ECDA850945B0
:10141400413B11090327C9FF91472320E4800307B7
:101424006480E34E07FE23033481FD17EDFBFD14B6
:10143400110B81C49377FB0FE9FF7D3371F5E1B59F
:10144400B717004003C75704B7070800137707020C
:1014540019E3B78707007955E378FBEA33079B0064
:10146400E3FFE7F855B58547E382F9F2DA852D45C0
:10147400053B9389F4FFE38504E6293393F73900A8
:1014840091EB832604800327090093074900E39A1C
:10149400E6E43E89CE84F1BFB5476396F9001305AF
:1014A400900BC93135BDB1471305B00AE38BF9FE82
:1014B40099476391F904B7050800B365BB002D454E
:1014C400C53181448D4BA1497539639674018327D5
:1014D40004802320F9008504E39834FF83270480E3
:1014E40013172B01635507002312F900D5BB2322E0
:1014F400F900FDB39D476399F90281451305B004D2
:101504004531BD442320090023220900FD599D399A
:1015140093F77400CA9703C70700FD14398D23801D
:10152400A700E39634FF6DBBA1476392F9046D39BC
:101534008144630D0B008D479304C0036308FB00D3
:101544009304000563048B01930440041375C507D9
:10155400E30895D8194539313939054521312685AE
:101564000D3909453D314931E31C05D669BB914725
:101574006399F90013056006F536F53E13059009E5
:101584000DB7E38F09D4F154A9BBAD6737C7004049
:10159400BD072326F7200F1000009747000093870C
:1015A40067E2C84F83278726BD66BD0693C7F7FF4A
:1015B40099836A052326D7205D8D82804111B71750
:1015C4000040985F3AC6945F3247E39CE6FE32459A
:0815D4004101828082800000C9
:1015E0009711002093818129174100201301016583
:1015F0001305400097F5FF1F9385C5A0170600202F
:101600001306C6FD63FAC5008322050023A055001A
:1016100011059105E3EAC5FE176502001305853F34
:1016200097050020938585FB1386C18263FAC50068
:101630008322050023A0550011059105E3EAC5FEAC
:101640001385C18297450020938545DF6377B500F8
:10165000232005001105E36DB5FEFD42739002BC29
:101660008D4273904280B72200009382828873A0DB
:10167000023097F2FF1F9382E29893E23200739058
:101680005230972200009382E24A73901234730022
:1016900020303D432A876373C3029377F700BDEF81
:1016A000ADE5937606FF3D8ABA960CC34CC30CC7D2
:1016B0004CC74107E36BD7FE11E28280B306C340FB
:1016C0008A069702000096966780A6002307B70057
:1016D000A306B7002306B700A305B7002305B7008C
:1016E000A304B7002304B700A303B7002303B70084
:1016F000A302B7002302B700A301B7002301B7007C
:10170000A300B7002300B700828093F5F50F9396EE
:101710008500D58D93960501D58D61B793962700E9
:101720009702000096968682E78086FA9680C11717
:101730001D8F3E96E374C3F8A5B73367B500FD531C
:101740000D8B79E7B7877F7F9387F7F71041944137
:10175000B372F6003363F600BE92B3E262006397A1
:10176000720C6318D6065041D441B372F60033634D
:10177000F600BE92B3E262006398720A631BD6045D
:1017800010459445B372F6003363F600BE92B3E29F
:1017900062006391720A631ED6025045D445B3724B
:1017A000F6003363F600BE92B3E26200639A7208F9
:1017B0006311D60210499449B372F6003363F60000
:1017C000BE92B3E26200639372085105D105E30F44
:1017D000D6F61317060193970601631CF7001357FB
:1017E000060193D706013305F7409375F50F91E98C
:1017F00082804183C1833305F7409375F50F91E1F2
:1018000082801377F70F93F7F70F3305F740828045
:101810000346050083C60500050585056313D6004C
:1018200065FA3305D640828011059105E312D6FE94
:10183000014582802105A105E31CD6FC014582807B
:101840003105B105E316D6FC014582804105C1058D
:10185000E310D6FC0145828041111385C1D406C630
:10186000EF30A0699387618503D781862390E700D5
:1018700003D60700938541D6138581D0EFD0B14EB2
:10188000B240239401868547A382F186410182807C
:10189000B7E700E03707400023A0E7180100010088
:1018A00082801386019F8147B2861303F00FA948F7
:1018B0003308F6000348080013F7F70F6305A80282
:1018C000630668008507E39517FF2947B387E6009D
:1018D0002380A7009387C19F09A885458DA08945CE
:1018E000B9A88D45A9A81387C19FBA972380B700CF
:1018F000E1476310F50693F73500154791CB854610
:1019000019476387D70089461D476383D70021475E
:1019100093F74500B337F00093F58503850785C13C
:10192000A146E38CD5FAE146E38BD5FA9306800213
:10193000E389D5FA930680036393D5009145238408
:10194000F1842385E184A384B1848547A385F18450
:10195000828082802A872380050081471385019F2A
:101960001308F00F2946B306F50083C606006394FA
:10197000E6029386C19FB69783C70700054523807B
:10198000F5009947636EF7029D4763FDE700E14765
:10199000630DF7008280638506018507E395C7FC28
:1019A0000145C5B7238005008280B737004003C7D3
:1019B000370083C7050093F70704D98F2380F5000C
:1019C0008280797126D24AD083C481871389C186E7
:1019D00006D622D44ECE52CC56CAB307990083C73E
:1019E000070093F7F70FA9CF9387140093F7F70F2A
:1019F0000D476361F70A238CF18693874187A69789
:101A000083C707001307100293F7F7036382E71CED
:101A10006365F7080547638BE714E38D072689465E
:101A20006387D71013070002E38BE7189535CA9434
:101A300023800400B7E700E03707400023A0E71049
:101A4000B787004003C76700058BE30F072A83C6EB
:101A5000A1870547E39CE62829472381E702094738
:101A60002383E7022385E702A3860184A38D0186F1
:101A7000B7870040A3810700A3880184054723831B
:101A8000E700B250225492540259F249624AD24AB3
:101A900045618280238C01868DB7130730026384F1
:101AA000E70863E1E70C13074002638AE7061307C0
:101AB0000003E39DE7F693870187A69703C6070017
:101AC000A1471376F60F6311F672138781A083473F
:101AD0006700238CF18283C7F1A081C7FD57238C57
:101AE000F18283C791A0A38CF18283C681A093F574
:101AF00006061305000493F90608639CA53E9306A9
:101B0000A009638AD71063E9F60C1307F005638711
:101B1000E73C130750096389E7200144B1A1FD5751
:101B2000238BF18221B7FD57238AF18201B7938776
:101B30000187A69783C707002389E182A389F182E1
:101B40002386E184B133378700408347A70293F7A8
:101B5000370F2305F702B7E700E03707400023A05F
:101B6000E710E9B58547A388F182C9B59387018756
:101B7000A69783C70700970600209386E6C501470E
:101B800093F7F70F138681A88506634BF7021707B3
:101B900000202317F7E605472388F18297060020E7
:101BA000A381E6E62386E184A387E182D5313787E6
:101BB00000408347670293F7370F2303F70261BFA3
:101BC000B305E60083C505000507A38BB6106DBFFE
:101BD00085472387F18299BD9306400A6381D72EFA
:101BE0009306200B6388D72E9306100AE397D7F24B
:101BF00083072700014463D9073683C7B1A013F7D1
:101C000037006302071685466308D71C8946631DA3
:101C1000D7141D4691AA03C5A1A0C94703CAB1A004
:101C200083C5C1A003C4D1A0631BF50ECD476318C3
:101C3000FA0E930770086391F5021307300FB71778
:101C40000E006308E4001307900DB7B70400631992
:101C5000E40623A2F184D1B593078008639DF500C3
:101C600033048040B77746001374F40F938787CD11
:101C7000B3D78702F9BF93079008639AF50033043E
:101C8000804091671374F40F9387C766D5B79307A5
:101C9000A008639BF50033048040B7173D00137420
:101CA000F40F93870790E9B79307B008639AF5009C
:101CB0003304804091671374F40F938797D04DBF1E
:101CC00093F5F5078D47639BF50033048040B79784
:101CD0005B001374F40F938707D859BF8947639B40
:101CE000F50033048040B7770B001374F40F93872B
:101CF000071BBDBF8547639AF50033048040DD674D
:101D00001374F40F938767E3A5B76396051A33043A
:101D100080408D671374F40F938777DC91BF513641
:101D2000A2855285BD3ED5BB9305610003C5A1A028
:101D300003C4B1A0053193057100228521393C000F
:101D400023A0F186834761002304F10083477100DB
:101D5000A304F1008947238CF182835781002394E7
:101D6000F1A0094411A4154613F747003337E000EA
:101D700093F78703050785C3A1466381D706E1462C
:101D80006380D70693068002638ED7049306800390
:101D90006393D70091472384E184A384F18423854E
:101DA000C18483C7C1A093F6070403C7D1A08DEEF9
:101DB00093F7770C93067008638CD70293F7F707B5
:101DC0008D46639AD70A3307E040B7975B001377D5
:101DD000F70F938707D881A8194679B7854765BF5C
:101DE000894755BF8D4745BF930670086391D70259
:101DF0009306300FB7170E00E30DD7E49306900D4E
:101E0000B7B70400E307D7E49307700845BF93060C
:101E1000800C639DD7003307E040B7774600137707
:101E2000F70F938787CDB3D7E70225B59306900CBC
:101E3000639AD7003307E04091671377F70F9387D2
:101E4000C766D5B79306A00C639BD7003307E04065
:101E5000B7173D001377F70F93870790E9B79306FD
:101E6000B00CE39DD7F43307E04091671377F70F89
:101E7000938797D04DBF8946639BD7003307E040D7
:101E8000B7770B001377F70F9387071B69BF85465A
:101E9000639AD7003307E040DD671377F70F938726
:101EA00067E351B789EB3307E0408D671377F70F8E
:101EB000938777DC8DBFF1679387072059BB8347F2
:101EC0002700C18B89C78547238FF182B9B1238F42
:101ED0000182A1B18547A385F18481B13C0023A093
:101EE000F1860947930700032314F100238CE18254
:101EF000BDB56396053E29466368F62E1726020097
:101F00001306C6628A07B2979C43B297828783C63C
:101F1000B1A00946638BC60A6365D6068547638010
:101F2000F6089307F00F03C7818363F4E700238C5F
:101F3000F18203CA8183930700041374FA0F63F4D8
:101F40004701130400049387018683AA07002286B1
:101F5000138581A0D685330A8A40A29AEFD0A1606A
:101F6000238C418323A0518783C791831547639FA7
:101F7000E73C393AB787004023808702130780FC8B
:101F8000ADAC8D476386F6089947E39CF6F8972732
:101F900002009387675C23A0F186A94769B703C74E
:101FA000A187938781C04946972502009385856361
:101FB0006306D700972502009385055F3E85EFD025
:101FC000815A23A0A186C947B9BF83C6A187054707
:101FD000938781C06390E6023E85130670029725C1
:101FE00002009385A55DEFD0015823A0A186930739
:101FF000700215BF3E8513063004972502009385B5
:102000006556EFD0415623A0A1869307300421BF27
:1020100003C5A187854503C7A1A06314B50825C3DF
:102020009307F00FE3E1E6F017640200130404994C
:10203000630CA700172402001304045D6306C700A5
:10204000172402001304445D2285EFD05134137528
:10205000F50F9307150086072384F1C08D47A384ED
:10206000F1C0938781C00147BE861376F70F8907B9
:10207000636FA60023A0D18683C781C06DB5976723
:1020800002009387679223A0F186914769BD3306CA
:10209000E40003460600A380070005072380C7006D
:1020A000E9B771DF9307F00FE3EFE6E6176402008C
:1020B0001304C48F630CB700172402001304C45325
:1020C0006306C700176402001304C48E2285EFD094
:1020D000112C1375F50F9307150086072384F1C0A3
:1020E0008D47A384F1C0938781C00147BE861376D4
:1020F000F70F8907E370A6F83306E40003460600ED
:10210000A380070005072380C700D5B783C7518583
:1021100093E74700A38AF18483472700A388F184CB
:10212000EDBA9387018583C707002384F1A003C418
:102130008183333480000DBD83C7518593E7070148
:10214000A38AF184834727002388F184F9B213F727
:10215000F60135EBB787004003C767021377C70B5B
:10216000136727002383E70203C7A7021377C70B70
:10217000136727002385E70203C7E7021377C70B1E
:10218000136727002387E70203C727031377C70BCB
:10219000136727002389E70285472387F182A388F5
:1021A000F182238AF182238BF182A3870182238922
:1021B0000182A38A0182A38B0182A3860184A38D5D
:1021C00001866FF09F9589476310F70283C7C1A00E
:1021D00091466382D70863E6F6026384E70C636F77
:1021E000F70805476386E70CFD57A38CF182EFF0F3
:1021F0002FEAB78700401307F0FC2381E7026FF056
:102200009F95130720086382E7086362F7021307AC
:102210001008E39BE7FC378700408347670293F78A
:10222000C70B93E727002303F7026FF01F8F1307F5
:1022300030086389E70213074008E397E7FA378716
:1022400000408347270393F7C70B93E72700230931
:10225000F7026FF09F8C378700408347270393F77F
:102260003707F5B7378700408347E70293F7C70B77
:1022700093E727002307F7026FF03F8A3787004074
:102280008347E70293F73707F5B73787004083475F
:10229000A70293F7C70B93E727002305F7026FF018
:1022A000DF87378700408347A70293F73707F5B7E3
:1022B000378700408347670293F73707ADB723841A
:1022C00001A0B5B5239401A09387818303C40700BF
:1022D000894763F3870009441374F40F71B19306BF
:1022E0000002E393D5F0639709026387B7001307F1
:1022F0002002E384E782CDBD03C4C1A001E4A3862C
:1023000001829DB18947E311F4EE8547A386F182EE
:102310006FF0BF806387B70293061002E396D7EC95
:1023200023A0E18693874184944383D7470003C762
:10233000A18423A4D1A01D442396F1A02387E1A06A
:1023400025B1A3860182239401A021BC2547E38205
:10235000E7C21947639EE700B789004023808902DE
:10236000EFF00FD3930700FC2381F9026FF0AFFE6B
:102370001307100A639BE700B78900402380890296
:10238000EFF00FD1930780FCC5B71307A009E385D1
:10239000E7FE1307400AE381E7FE13072002E38A02
:1023A000E7BC0547E387E7BCE39509BCEFF04FCEF8
:1023B000B787004023808702130720FC3DBD03C779
:1023C0009183630EF71063EDE70095476304F70A06
:1023D00099476308F702378400402300040275A080
:1023E0009307F005630AF700930750096306F700A7
:1023F00093071002E311F7FEEFF08FC9B787004093
:1024000065BF83C9818393070004CE8A63F43701D3
:10241000930A00049387018603AA070013F4FA0FB6
:102420002286D285138581A0EFD0E113B38789403E
:102430005294238CF18223A08186378400406384E8
:10244000090223005403EFF0AFC48347240293C76B
:1024500007042301F4028347240293F7C70F2301E3
:10246000F4026FF04FEF23000402EFF06FC2930706
:1024700020FCF5B7378400408347340003C711853B
:1024800093F70708D98FA301F400EFF06FC093070B
:10249000A0FCF1B793870187A69783C7070093F73E
:1024A000F70F95CF83C7A1879DEB83C691839307D1
:1024B00000026396F602138681A0104283C7E1A052
:1024C00083D6C1A023A2C1842394D1842385F1841F
:1024D0002386E182EFF0CFBBB787004045B4EFF031
:1024E0002FBBB78700401307A0FC01BB29472381FE
:1024F000E70209472383E7022385E7022387E702F0
:102500002389E7026FF04FD603C76700118B630A78
:1025100007D683C75700918BA1C703C7A1878547FB
:10252000631DF702A385E18423870182A3880182CA
:10253000238A0182238B0182A3870182238901825E
:10254000A38A0182A38B0182A3860184A38D0186C5
:10255000B787004011476FF08FD22386F182E9B729
:1025600085472387F182A388F182238AF182238B16
:10257000F182D9B723AE01848280411122C406C6FC
:1025800003C451868547631AF40415469725020053
:1025900093854509138541D6EFC0917A39E103D778
:1025A00061859547631FF702B7372B0D9387B7B245
:1025B00097F6FF1F23A2F622A94797F6FF1F238F46
:1025C000F62097F7FF1F2391E73297F7FF1FA38E9F
:1025D000873023940186A3820186B24022444101C0
:1025E0008280172400200344C4E985476316F4045D
:1025F00097270020938747E383A7C70D95EF03D75D
:102600006185938761850DCB03D70700138581D042
:10261000930600042A972300070003D70700E3EC82
:10262000E6FA83D50700EF8001532382818683C7B2
:10263000C19D99E3238E819C239B018469BF8547BB
:102640002387F182A388F182238AF182238BF1828E
:10265000A387018223890182A38A0182A38B01823D
:102660008280411106C6E13FB78700402380070002
:10267000130740FC2386E7001307C004A386E70086
:10268000138781A02398E700138781A4239AE7008A
:10269000138781AC239CE700138781B8239EE70052
:1026A00029472381E70209472383E7022385E702BD
:1026B0002387E7022389E702A3810700130700F8B5
:1026C000A380E700130790022380E7007D57238350
:1026D000E70019472381E700B706400037E700E02D
:1026E0002320D71003C7170013671700A380E70044
:1026F000B2402398018441018280411106C681378E
:10270000B787004023800700130700FC2386E700FB
:102710003147A386E700138781A02398E70013873A
:1027200081A4239AE700138781AC239CE700294703
:102730002381E70209472383E7022385E702A38178
:102740000700130700F8A380E70013079002238017
:10275000E7007D572383E70019472381E700B70689
:10276000400037E700E02320D71003C717001367A6
:102770001700A380E700B2402398018441018280C2
:10278000F1679387072023A2F18485472394F1847E
:10279000A1472385F184A385018423860184A38630
:1027A00001822386018281471385019FFD5513868F
:1027B000C19F2947B306F5002380B600B306F60093
:1027C000238006008507E397E7FE23860186A3861C
:1027D000018623870186A38D0182A38F0182238E28
:1027E0000182238D018223800184A38E0182238FA5
:1027F0000182A3870186828003C7A187854763136F
:10280000F700E5BDB9BD411122C42E862E84AA85EC
:10281000138581A806C626C21374F40FEFC0B15405
:10282000B78400402387018223828402EFF04F8621
:1028300083C7640237074000014593F7C70F23831E
:10284000F402B2402244B7E700E023A0E71092442C
:1028500041018280411122C42E862E84AA851385CF
:1028600081BC06C626C21374F40FEFC0D14FB784E3
:1028700000402387018223868402EFF06F8183C7A3
:10288000E40237074000014593F7C70F2387F4029E
:10289000B2402244B7E700E023A0E7109244410190
:1028A0008280411106C6EF20611DB2404101828045
:1028B000011106CE2EC6EF20E107B73700401307FF
:1028C00070F82381E700B24513070004014593F532
:1028D000F503A381B700A380E70005472387E7003E
:1028E000EF20610895450545EF208109F240B7E7E3
:1028F00000E03707000423A0E71005618280011182
:1029000006CE2EC6EF20E10CB7370040130770F853
:102910002381E740B24513070004014593F5F50311
:10292000A381B740A380E74005472387E740EF2016
:10293000A11095450545EF20C111F240B7E700E031
:102940003707000823A0E71005618280130101C248
:10295000232E113C35354D35B7E700E037074000F1
:1029600023A0E710371700408327870C8966854529
:10297000D58F2324F70C0565EF1011088D450965E7
:10298000EF109107930500020545EF101122930502
:10299000403C09666800EF2040248345410A5A45BF
:1029A000EF40C1462DED716513050520EF20610252
:1029B000EF2041050145EF20210895450545EF2011
:1029C0004109B7E700E03707000823A0E7103717F1
:1029D00000408327870C8545414593E7070823245A
:1029E000F70CEF1071018D4513050008EF10D100B1
:1029F00097F5FFFF938585E61385C1D4EF20403A14
:102A00009305000A1385C1D4EF2080558320C13D72
:102A10002395018623AE01841301013E82805A452D
:102A2000EF10317BB7370040130770F82381E74080
:102A30000347410AA381E74013070004A380E7404E
:102A400005472387E740BDB703C581858280854759
:102A5000238EF186828082804111138581ED06C626
:102A6000EF20A049B2402389018885472382F1865F
:102A7000410182804111172500201305E50106C69A
:102A8000EF20A047B2408547A388F18841018280AA
:102A90004111172500201305E54B06C6EF20E04540
:102AA000972700209387479883A7C70D9DE3172793
:102AB00000200347079D8547631DF70097270020E7
:102AC00083C7C79B6397E7002382F186B240410129
:102AD000828023820186DDBF411117250020130566
:102AE000E5D006C6EF206041B240854723AAF188B1
:102AF00041018280938701889C43411126C285074A
:102B000006C622C423A0F18803471500AE846302E1
:102B100007105C412A84972502009385E5B5BA9792
:102B200023800700504117250020130565F8EFC0EA
:102B3000516B172500201305A5F7EF7041380347A7
:102B40000400D147631EF708854717F7FF1FA30648
:102B5000F7FC034614004C4017F5FF1F1305C5EAA8
:102B60009307260017F7FF1F2318F7FAEFD0010687
:102B700017F7FF1F035747FA97F7FF1F9387C7C53C
:102B8000BA9735472387E7222947A387E72217F615
:102B9000FF1F130666E7972502009385A5AF17254B
:102BA00000201305E5F0EFC0D163172500201305C1
:102BB00025F0EF70C130904897250200938505B24B
:102BC000172500201305C5EEEFC0B1612244B240C5
:102BD0009244172500201305A5ED41016F70212EA9
:102BE000834514004840EF70611C1726002013062F
:102BF000A68383061607834714005840030626075A
:102C0000834504001725002003455589EF70211CDA
:102C10005DB713844188104097250200938505A86D
:102C2000172500201305C5E8050623A2C188EFC0BB
:102C3000515B172500201305A5E7EF704128984840
:102C4000894763E2E702EFC07075AA851725020085
:102C50001305C5A6EF80D1428547A389F188972740
:102C60000020238207B89387818B944310409725D7
:102C70000200938525A517250020130565E3EFC005
:102C80005156172500201305A5E2EF704123EF10E0
:102C9000305F15B7397106DE22DC83C78188639403
:102CA00007129717002083C7F77E63970710EFB0CE
:102CB000301763130510172500201305E5DD930574
:102CC0008025EF20E029172500201305E5DCEF2003
:102CD000A00E971700209387277503A7C70D3E8482
:102CE0001DE703C7C19D8D476313F7029305C0120B
:102CF0001725002013050526EF2080261725002024
:102D000013054525EF20400B8547238EF19C9387C3
:102D1000C195904383C69195972502009385859D23
:102D2000172500201305C5D8EFC0B14B172500208B
:102D3000130505D8EF70A1189387818B944393876F
:102D400041889043972502009385859C1725002094
:102D5000130505D6EFC0F14817250020130545D50A
:102D6000EF70E115A38C019483C78189B5EB93873C
:102D7000C1889C4305476395E70617170020034762
:102D8000E771631CF704238A01EC8327443B850722
:102D9000172700202324F7A413060003938581EA54
:102DA0000A85EFC0417C0A85EF10802D6254F250F5
:102DB000114521616F00211D172500201305C5CD88
:102DC000EF20A01339B7172500201305E5CCEF201D
:102DD000C0128547238AF18AEDBD238AF1EC6DBFCD
:102DE000F2506254216182801C41397126DA83C716
:102DF000070006DE22DCAA84638F070C1C45DDEB8E
:102E000005441725020013056583EF70410B23A4C9
:102E1000818097170020238387668D472384F1885C
:102E2000B717004083A6C70C37060800D18E23A62B
:102E3000D70C03A7870C518F23A4E70C85679387D2
:102E40008738171700202321F726EFC03055971732
:102E5000002023ADA7249717002023858724A3896A
:102E6000018897270020238087989307C0023EC0DF
:102E7000971700209387475B83C7B7060A8523020D
:102E8000F100EFA0F0479844FD576316F70A1725A5
:102E90000020130565C09305803EEF20600C1725C8
:102EA0000020130565BFEF103071F2506254D25408
:102EB00021618280938781809C431715020013054E
:102EC0002579850723A4F180EF60717F9717002093
:102ED0002386075A59BF0544171502001305857844
:102EE000EF60F17D97170020238A87588D47238450
:102EF000F188A3898188B717004083A6C70C3706DD
:102F00000800D18E23A6D70C03A7870C518F23A4CA
:102F1000E70C856793878738171700202326F71853
:102F2000EFC0D0479717002023A2A71897170020BB
:102F3000238A87161DBF171500200345B555EFF0EE
:102F400010448547238AF18A8DB76F0021036F00F3
:102F5000C102011122CC06CE2A84EF00410285472E
:102F6000630BF40009476308E402A38E0186F24074
:102F7000624405618280171502001305256B231436
:102F8000010002C6EF60B17381452800EFF0F01335
:102F9000A38E8186E9BFA38EF186D1BF8280011105
:102FA00003C6518B32C606CE22CC793C85473246C9
:102FB0006314F50C9307F6FF31473387E702971741
:102FC000002093876746BA9703C707286316A70AA6
:102FD00003C727288946972502009385E589630959
:102FE000D7008D466315D706972502009385458A3D
:102FF000172500201305C5ABEFC0B11E1725002013
:10300000130505ABEF60B16B17250020130545AA2A
:10301000EFC0F13717F4FF1F1304440697F7FF1FA3
:10302000A38EA704484097250020938565A8EFC08C
:10303000F13481452285EFF0500915E9172502008A
:103040001305C5876244F24005616F605167914680
:103050006314D70283C61728972502009385C58479
:10306000172500201305C5A4EFC0B11741BF1725D0
:10307000020013056586F9B7F2406244056182805B
:103080009717002083C70702B5C3411122C406C6A3
:103090001714002013040401EFC050301C441D8D90
:1030A0005C4063FFA70097170020238D07FE3717AA
:1030B00000408327C70CB7060800D58F2326F70CDE
:1030C000EFC0D02D1C44637FF50097170020238BA1
:1030D00007FC371700408327C70CB7060800D58FB9
:1030E0002326F70CB240224441018280828083C7AC
:1030F00041866387071683C72189639307164111A9
:1031000006C622C4EF80D039631E051283C6C19D56
:1031100005479387C19D639BE608EF7091359385C2
:1031200081DAEF7011182388A1882DC59387018952
:1031300083C70700814517F5FF1F130525F417F70F
:10314000FF1FA30DF7F2EFF0407825ED9387018B79
:10315000944303C601899715020093856579B29659
:10316000172500201305C59423A8D18AEFC0710745
:10317000172500201305C593EF6071541715020041
:1031800013054578EF60B1538D47238EF19C238260
:10319000018609A8172500201305C5DBEF10F0559F
:1031A000238E019CB24022444101828003C7070064
:1031B0008946E38DE6F683C7070093F7F70FBDF75F
:1031C000D5B7D557631AF506171400201304C42584
:1031D0000326840D8947971502009385657317258B
:1031E00000201305E58C238EF19CEFC0817F17250D
:1031F00000201305E58BEF60914C85478326840DF5
:103200002389F18885671387F7E06368D700938780
:1032100007E1171700202325F72E138581EDEF1006
:10322000D04D8325840D138581EDEF1070531385E8
:1032300081EDEF107038A1BF17250020130585D14F
:10324000EF10B04B8565172500201305A5D0938599
:1032500005E1EF10F050172500201305A5CFD1BFD1
:103260008280411106C622C426C2EFE08FF583C7D3
:10327000918999E3EFF09048EF109004EFC0501C53
:10328000EF10C05DEFF06FAF9D35EF50512223AED0
:10329000A18819C1EF50017F83C7518B81C70133CA
:1032A000A38A018AF13B854783C4418B6398F40C60
:1032B000238A018AEF8081412A8417150020130593
:1032C000A57DEF1090431715002013052552A38804
:1032D0000188EF10904213878188238781DA23A425
:1032E00001DA238601DAA38691DA834707003A845C
:1032F000FD1793F7F70F2384F188D1E71714002007
:10330000130484128325C40D096513050571AA955C
:10331000EFC08055AA85171500201305254DEF1025
:103320003044171500201305654CEF10F02883C7B3
:1033300031899DEF8357040893E717001717002082
:103340002314F716EFC09005AA8517150200130580
:10335000E54DEF80E152171502001305254DEF6092
:103360001136294597E0FF1FE780C0D8EF50A165CF
:10337000A38C019423AE019423A20188B24022447D
:10338000924441018280639E970083C7318991EB0B
:103390000145EF406176171502001305E549EF601E
:1033A00011329D47854517F5FF1F130525CD17F7EA
:1033B000FF1FA305F7CCEFF040510DE117150200F8
:1033C00013054548EF60B12F2244B24092441715CF
:1033D00000200345150C41016F4001728347040032
:1033E000171502001305C54785072384F188D9BF47
:1033F0004D71232611142324811423229114232098
:103400002115232E3113232C4113232A5113232852
:103410006113232671132324811323229113232064
:10342000A113232EB111EFF0803E29C9EFF0203C0B
:103430009387818005478043630EE5028967938700
:1034400007713304F402BD651D65938505A6130558
:103450000553EFC06041B305850017150020130523
:10346000E538EF10F02F1715002013052538EF1061
:10347000B01425A09567938707E2E1B79714002061
:10348000938484FA03A4C40D29E4171500201305BE
:10349000E53523A60188EF1050268320C1140324AC
:1034A000811483244114032901148329C113032A9D
:1034B0008113832A4113032B0113832BC112032C85
:1034C0008112832C4112032D0112832DC1117161D0
:1034D00082802A8AEFC0806C2AC0130600108145C2
:1034E000138581DA23A40180EFE0AF9A171700203B
:1034F000034747058547630DF74A17170020034721
:1035000067056307F74A83C7C41317190020130917
:10351000A9F1CA8C2384F1DA054D85490548938ABF
:1035200081DA138B81EA971B0200938BAB1F094C46
:1035300083C70C14639D07050396EC1483A58C14B4
:1035400083960C1503C5CC14938D2900C20DEF4052
:10355000B12FB3863A018509C20993D909012380A5
:10356000A60093578500D6992380F9002391AC14C7
:10357000EFB0D13F83A50B0093192D00DA99EFB07E
:10358000010993DD0D0123A0A9000548EE89D10CA6
:1035900063178D4B83C6841613871900938781DACE
:1035A0004207BE99138C81EA2380D9004183171307
:1035B0000020130363EFE288971600209386C6E687
:1035C000BE8D054E03C6D6176318C60503A686171B
:1035D000B385ED002380C50093051700C205C181A6
:1035E000EE95135586002380A5001305270093054B
:1035F00037004205C20541816E95C181935E060187
:1036000011072300D5014207EE951355860141832A
:103610002380A50023A6C800938606029108E393A1
:1036200066FA83C5C41E930617003386ED00C206F2
:103630002300B600C18297170020A38D07FC938852
:1036400081EA97150020938525DE01450146854EC8
:10365000371F0040114E03C30528631BD303032605
:103660004F0C03A38528971F002083CFBFFA337622
:103670006600133616003313A600A381C5283363F2
:10368000F30123A6C80097170020A38567F8054615
:103690000505B1059108E310C5FD9715002083C508
:1036A00075F7138381EA971800209388E8D70145BE
:1036B000854E494F114E83CF081F6398DF033306B1
:1036C000E50383CF0821054A7E961306E60E06061B
:1036D000269603562601930F45003316F601D18D29
:1036E0002326C30093F5F50F054605059388480288
:1036F0001103E312C5FD63060A0097170020A38B90
:10370000B7F011CA03C6D41EEE9609072380C6007F
:1037100093160701C1823387DD0017160020035678
:10372000A6FB2300C700138726008506C206C182B8
:10373000171D0020130D4DCF931C0701EE9621821B
:1037400093DC0C012380C6006A8BEA8983C6A92E0C
:1037500085476399F60C938A1C00C20A93DA0A0122
:103760009387C92E13FAFC0F971B002083CB4BFACB
:103770003EC4D68C83454D2D03254B2BEFF04F9344
:10378000EFE05FDF83C5B92E2245EF10012283D71A
:10379000C92F3EC2EFC080402AC6EFF09FAC09455A
:1037A00097E0FF1FE780009597E6FF1F83C6F65955
:1037B0008547639FF62897E7FF1FA388075817E7F9
:1037C000FF1F0347875817E5FF1F1305E5008145D5
:1037D000B386BA00C20693F8F50FC182050563E20D
:1037E000E82697E7FF1F938727FF83C5275797E6AC
:1037F000FF1F83C67644FD169A06CD8E6E9A23006F
:10380000DA0097E6FF1F83C656435697A20697E550
:10381000FF1F83C5A542931C0701CD8E93DC0C01CD
:10382000231EDC00E109971700209387E7CB090CE2
:10383000110B050DE39CF9F0B3869D01054623802D
:10384000C600EF70B16813871C00420793892C00F3
:103850004183B387ED00C2092380A70093D90901F2
:1038600097150020938545BE85460945B71700404A
:103870000347C9116310D7020317091201CF034789
:103880004912032689126313D72003A7C70A518F51
:1038900023A6E70A4109E39D25FD83A7443B91CB7D
:1038A00083C7318905476396E70017170020230572
:1038B000F7F2638B090C1306800C8145A80097E78B
:1038C000FF1FA38D377BEFD0DFDC971502009385B8
:1038D000A5E5A800EFC0812AA800EFC0412BAA8A65
:1038E000014997EBFF1F938B6B790D4B171A020061
:1038F000130A4AE43305690383A74B00D285CA97AC
:1039000003C607000509BC001379F90F56953E95CB
:10391000EFC0210DE36039FFA800EFC041271C0A6A
:103920003E95A947230CF5F2A800EF604159854761
:103930009715002083C585B617E5FF1F130505748D
:1039400023A6F188EFE07078631A05149387818BC2
:10395000904397150200938565DE17150020130527
:103960002515050623ACC18AEFC0A1079387C19531
:103970009C43171500201305A513850723AEF1946A
:10398000EF60E153EF10C010EFC040218247A297D3
:1039900063E0A7148247930564FE338CF5008567C6
:1039A000B305AC40938707FAE3D9F5AABE8575B491
:1039B00017190020130949A7971C0020938CCCA845
:1039C000014B854B094DB71900408347C9116397D7
:1039D00077030327091283474912832A8912635305
:1039E000EB003A8B6390770556858D45EF00617645
:1039F00083A7890AB3EA570123A4590B4109E316A7
:103A000099FDEFC0A0192A89EFC04019330525415F
:103A1000E37B65AFEFF0FF84094597D0FF1FE78098
:103A2000606DDDB7E39CA7FD56858D45EF00C17C39
:103A300083A7890CB3EA570123A4590DC1B7094DD7
:103A4000C5BC83482546EE9685052380160149B3FB
:103A5000EFC0C014B2471D8D9247E360F5D499CFF3
:103A600097E6FF1F83C6561DFD169A066E9A93E6CB
:103A700086012300DA00231E0C006DB39386FBFF42
:103A800093F6F60FE38E0BFCB68BEDB1E314A7E0D3
:103A900003A7C70C518F23A6E70CEDBB1715020037
:103AA0001305C5CBEF60A14183A7443B1306000378
:103AB000938581EA85070808171700202320F7D28D
:103AC000238A01ECEFB0312A0808EF00605B6DBD7E
:103AD0008565938505FA51B24111930500020545AC
:103AE00006C6EF00910C371700408327870C8966C4
:103AF0008545D58F2324F70C0565EF00E16F8D45D3
:103B00000965EF00616FEF00F16FB7E700E037077D
:103B1000000823A0E71801000100B24023AC018A8D
:103B200023A2018823AE0194A38C019441018280D9
:103B300059711305800486D6A2D4A6D2CAD0CECE9F
:103B4000D2CCD6CADAC8DEC697D0FF1FE780403A8B
:103B50006137EFB0706EEFB0505E97E5FF1F938551
:103B600065AB17E5FF1F130565A7EFE0A06AEF003F
:103B700040675145EFF0002B97E5FF1F938585AA1D
:103B80000145EFF0202CEF30D1129305800C014558
:103B9000EFB0904D4205418197D0FF1FE7808055DF
:103BA00097F5FFFF938505EF171500201305853A5C
:103BB000EF10001F930580071715002013058539A6
:103BC000EF10003AEFE09FD8552381465008814519
:103BD0001D4597D0FF1FE780E064D24717170020EC
:103BE0002328F790E247171700202325F790EF309E
:103BF00091101306100281456808EFD09FA997170E
:103C0000002083C7578F3EC29717002083C7A78E17
:103C10009718002083C8188E171800200348888D35
:103C2000171700200347E78C9716002083C6568C91
:103C3000171600200346C68B3EC0971502009385D9
:103C400025B39717002083C7D78A171500201305BF
:103C500025E6EFB011596C0817150020130545E54E
:103C6000EF8011326808EF6081256C08171500207D
:103C70001305F585EFD07FAC3335A000A38CA18868
:103C8000EFD03FD497F5FFFF938505DF1715002090
:103C9000130585E0EF10C01097F5FFFF938505E44D
:103CA00017150020130585B4EF10800F970700202B
:103CB0009387877783A5C70D17150020130505B3D4
:103CC000EF10002A97F5FFFF938545D9138581ED05
:103CD000EF10000DE1659385056A138581EDEF1006
:103CE0002028EF40616F85476312F512856517152F
:103CF0000020130565DA938585BBEF106026171544
:103D00000020130565D9EF10200BEF00505CEF7019
:103D1000112EEFB0B068AA8517150200130585A70C
:103D2000EF701136938441890544971902009389F5
:103D300029A713891189171A0020130AEAD5971A9F
:103D40000200938A2ADB171B0200130BEBA8EFF08B
:103D50004028EFF00FD1EF00105A9C406399870084
:103D60004E85EF60C11523AA0188EFF06FE8970731
:103D7000002083D7677391C7EF70907219E1EF60ED
:103D8000013083470900E314F4FC5285EF10E0167C
:103D9000EFE09FCB2DE983A7CA025A85BE8BEF6067
:103DA0000112294597D0FF1FE780C034829BEF4066
:103DB000A1626318850017150020130525A3EF10D5
:103DC000C013EFF0D067EF1050460546A1450545FA
:103DD000EF00B102494597D0FF1FE780A0EF0545EE
:103DE000EF000115EFE09FB617150200130505A0BF
:103DF000EF60E10CEFB0B0730145EFF03079EF30D8
:103E0000816FEF00D04CA388018891B70145EFE0A6
:103E1000BFCCE5BD0111A382018C05472380E18C55
:103E20002AC685453705300006CEA38E018AEF00ED
:103E3000A13CB247E1651167930600401166938586
:103E4000056A0145EF006163854513050040EF00F9
:103E5000C15D854513050020EF00215D85451305F3
:103E60000010EF00815CF240B7E700E03707004048
:103E700023A0E710056182809307000263E8C70E64
:103E800001114AC806CE22CC26CA4EC683C8518C20
:103E90001389518CF9576394080011EA8147F24065
:103EA0006244D2444249B2493E85056182808947D5
:103EB000B684A382F18C2380E18C238E018A2A842C
:103EC000138501EFA38FC18A238F018AEFB0A16907
:103ED000A380018C83C7118C131514005D8DA38002
:103EE000A18C0145EF00215003C7D18B85479389F1
:103EF000118C6319F706A38E018A3754004003C55D
:103F00000900EF00615483570480918BEDFB8545D8
:103F100013050040EF006151854513050020EF00B7
:103F2000C150854513050010EF0021501304400FC8
:103F3000894991CC83470900639BF9007D140545AD
:103F40001374F40F97D0FF1FE780C01A7DF083C76A
:103F5000C18BE38507F49387C18B83C70700B30741
:103F6000F04035BF0545EF00E145C9B7FD573E8537
:103F7000828001114AC806CE3A8922CC26CA4EC692
:103F800052C456C25AC0130700026369C70E03C762
:103F9000518CAA87138A518C7955631C070A328485
:103FA000014545CA0547A382E18C2380D18C238E2D
:103FB000018A238F018A9306F4FFA38FD18AA380FD
:103FC000E18C03C5118C8607C98F0145A380F18C54
:103FD000AE89EF00414103C7D18B8547938A118C8D
:103FE0006313F708A38E018AB754004003C50A0083
:103FF000EF00814583D70480918BEDFB8545130548
:104000000040EF008142854513050020EF00E141AB
:10401000854513050010EF0041418144854A7D5BD1
:1040200083470A00639CFA00054597D0FF1FE7808D
:10403000600C8504E30669FFE3C424FF83C7E18BBA
:1040400063E787022286938501EF4E85EFB0A15189
:104050002285F2406244D2444249B249224A924AFD
:10406000024B056182800545EF00C1357DB793871E
:10407000E18B03C407001374F40FE9B77D55D1BF7A
:1040800082809307D006B387F502411106C603C8A4
:10409000C18C05479385D7066310E802B706400038
:1040A000014763E7B600AA853E85EFF0F052054769
:1040B000B2403A8541018280B28645660147E36994
:1040C000B6FEB16563F2B70237470600BA970147FB
:1040D000E35FD7FC3306F700834506003306E500AF
:1040E00005072300B600EDB72A86B385B7402D45F6
:1040F00097D0FF1FE78000135DBF411106C603C8BC
:10410000C18C0547AE879385D5066310E802B706D4
:104110004000014763E7B600AA853E85EFF0D04B2B
:104120000547B2403A8541018280B2864566014723
:10413000E369B6FEB16563F2B70237470600BA9786
:104140000147E35FD7FC3306F700834506003306DB
:10415000E50005072300B600EDB72A86B385B74012
:104160002D4597D0FF1FE780E00B5DBF82800111D6
:1041700022CC26CA3284AE840A869D4506CEEF80C4
:10418000A14C8A8526851146EFB0E13D8347810029
:10419000F240D2442300F40083479100A300F400CE
:1041A000624405618280411122C406C62A84EFB0B0
:1041B000F01E2A94EFB0901E63668500B240224440
:1041C00041018280EFD0EFFFEF00900FEF40312EE2
:1041D00019C1EF40310B054597D0FF1FE78080F1F3
:1041E000D1BF130101812326117E2324817E232246
:1041F000917E2320217F232E317D130101DBEFF0FF
:104200008034371700408327870C294593E7270020
:104210002324F70C97D0FF1FE780C0ED85659385B9
:1042200005800545EF00611813050004EFF09FBEFF
:104230008814EFF02041620561850DC5294597D0AE
:10424000FF1FE78020EB130101258320C17E03249B
:10425000817E8324417E0329017E8329C17D130150
:10426000017F8280938701829C43A80C232CF12438
:10427000EFF0207913067003C1451145EFF0A07EE1
:10428000D00CEC0C8814E5350147D40CF00C9305E8
:1042900000081305E00FEFF01007930570031305F6
:1042A0007003EFF0101613050040EFB081241306E1
:1042B000004081452A84EFD0CFBD13060040A2857F
:1042C0000545EFF0803DAA891306C02493055400EC
:1042D000A814EFB04129832481261709002003592F
:1042E000A91463ED24019305D12D170500201305B2
:1042F0003514EFD08FC41375F50F45C189679387C7
:10430000F77063F8270197070020239F0710EFE05D
:1043100050531305414BEF6031189305C02413052A
:10432000414BEFE0B0479317850021815D8D23104D
:10433000A1701306C0249305414B13052170EFB003
:1043400081221306E024930501700545EFF0500328
:1043500001CD01469705020093858564170500206D
:1043600013050575EFB0E167371700408327C70CC9
:10437000228593E727002326F70C130101258320CC
:10438000C17E0324817E8324417E0329017E83290B
:10439000C17D1301017F6FB061166372990A89674D
:1043A0009387F77063FA97001306C024AC14054591
:1043B00023240126EFF0C07CE35830FB9305C02492
:1043C000A814EFE0B03D8347340003474400A20740
:1043D000D98F6316F5021306C024AC140A85EFB01A
:1043E00081188567FD74938707A28A971385045EF9
:1043F0003E95EF60B1601145EFE0F038B5B71305B9
:10440000414BEF6071099305C0241305414BEFE068
:10441000F0389317850021815D8D2310A1709305DD
:10442000414B1306C02413052170EFB0C1131306CE
:10443000E024930501700545EFF0807435B72945F8
:1044400097D0FF1FE78000CB05B79307F5FF93F7E1
:10445000F70F15476361F71A170702001307474C58
:104460008A07BA979C43797106D622D426D2BA9786
:104470008287930740022388F130138541319317D7
:104480002600A388F130EFB0010E914723A2F18EF0
:1044900085472387F18CB250225492544561828023
:1044A0009167938747042398F13041461385413142
:1044B000EFB0610B85472387F18C914723A2F18EE2
:1044C000D9BF2E852EC6EFB0816CB245930780040C
:1044D0002388F1301376F50F9317250013854131AA
:1044E000A388F130EFB0210865B785679387470649
:1044F0002398F13011465DBF930780F82388F1308F
:104500009387818D9C43850723ACF18C1387C18EE3
:104510001843636DF7081384418D14409305C0035D
:1045200083570400B385B6021705002013054558CC
:1045300013978700A183D98F13D70601136707FF4D
:10454000A388E1301306C0032399F130EFF0FFBADE
:1045500013870131814797050020938565559306A0
:10456000C0033386B7000346060085070507A3018D
:10457000C700E398D7FE9387018D8443138501F527
:104580001306C0032695938541319384C403EFA09D
:10459000917D23A8918C954723A2F18E854723878F
:1045A000F18C1C40850723AAF18CF5B59305C00357
:1045B000B305B7021008138501F5EF80613D9167DF
:1045C0009387C70841460C08138541312398F13081
:1045D000EFA07179914723A2F18E23AC018C85471E
:1045E0002387F18C23A8018C7DB5EFF0001D89474E
:1045F00023A8F18E4DB58280797122D426D252CC77
:1046000006D64AD04ECE034615008347250083497F
:10461000050013170601A207D98F0347350013D4ED
:10462000290093D65900D98F1397E700398323A027
:10463000E18E094AAA841D88638D46059147638DE2
:10464000F6168547639EF6026313D402098293052A
:10465000450017D5FF1F1305A56F97E7FF1F23918F
:10466000C78097D7FF1FA38E877EEFA0D16FEFF093
:10467000C01485470145A386F18CEFF0201315493E
:10468000B25022544A8592540259F249624A456115
:104690008280BD8BCDC38D476313F40417050200E0
:1046A0001305052BEFB001299387818E8C43930767
:1046B000C0039306003CB387B702B72503001386F7
:1046C00001F50945BE9597D0FF1FE780A0B52945A4
:1046D00097D0FF1FE78000A2B7070700829703D992
:1046E000C18D138501F54A951306C00393854400D7
:1046F0001309C903EFA0316793F91900239E218D97
:104700006396090089471149E31CF4F6EFF0E00ACB
:1047100085470145A386F18CEFF040090A86930591
:10472000003C138501F5EF80A12641468A850945A5
:10473000EFF0BFD1A9B78D47E302F4F615E3B72632
:104740000300FD160146B7250300054597D0FF1F5E
:10475000E78040AD1705020013058520EFB0811DED
:104760009387818E1387018E8C4318433E8963F2B1
:10477000E5040DC39307C003B385F502B727030013
:104780009306003C138601F50945BE9597D0FF1F9F
:10479000E78040A91306003C8145138501F5EFC071
:1047A0005FEF83270900C10723A4F18E239E018CAC
:1047B0003DB723A4E18EDDBF228691451705020097
:1047C0001305C51A8549EFB0C101631B340597076E
:1047D0000020938767C583A547119307C00317057A
:1047E00002001305E519B3D5F50223100100850574
:1047F000C205C18113D6850093978500D18F93F6AA
:10480000F50F2311F100EFA0D17DEFE0107B014502
:10481000A386818CEFE0907911468A85114509BF06
:10482000E31044E7EFE070790145A386318DEFE0B6
:10483000F07783C744001306C003814523A6F18E99
:1048400003C7640083C7540015452207C207D98FE8
:1048500003C77400D98F23AAF18CD9BD9387018F28
:104860009C431547636BF720170702001307C70C1B
:104870008A07BA979C43130101B52326114A2324C2
:10488000814A2322914ABA978287B717004003A72B
:10489000870C098B19C703A7C70C1367270023A62A
:1048A000E70C03C4D18C85476311F4083717004027
:1048B000A386018C8327870C294593E727002324AF
:1048C000F70CEFF05F8EEFE0D07625C123A8818E44
:1048D000A9A85145EFF03F8DEFE0B0756300050EDC
:1048E0004146CC0C13057003EFE030498347212685
:1048F00003473126D98F95CB9305700313057003B9
:10490000EFF020308347212681C7894723A8F18E05
:104910008347312699CBEFE0506A0545A386018C89
:10492000EFE0D068914723A8F18E8320C14A032489
:10493000814A8324414A1301014B82801305C05DE3
:10494000EFF07F86EFE0F06E6DF11305A040EFA071
:10495000513AAA852A84130600400545EFE0F0533A
:10496000AA841306C02493055400C80CEFA0B13FDD
:1049700063539004032741259707002083D7C7AAD4
:1049800063FBE7029305C024C80CEFE02061834776
:10499000340003474400A207D98F631EF5001306B5
:1049A000C024CC0C0A85EFA0113C0A85EF601105EC
:1049B0001145EFE0405D2285EFA0513423A8018E20
:1049C000ADB7EFE0106735F1D5BFEFE090667DD56C
:1049D00003C7D18C8547E31AF7F4EFF0802001CDAF
:1049E000C80CA386018CEFE07054C80CEFF0DFC058
:1049F00023A8A18E1DBF13054006EFF0CFFA35B7EF
:104A0000EFE0306345DD83C4E18C8547E398F4FA39
:104A100083C7D18CE38B07F0EFE0D065E30705F0A7
:104A200013850131A386018C2387018CEFF0801A56
:104A30009387418E804391476313F4021705020068
:104A4000130505F8EFA0116F2145EFF0CFF5EFE06A
:104A5000D0560545A386018CEFE0505585BD95479E
:104A6000E315F4EC1306C00381451545A386918C2C
:104A700023A8818EEFF07F9D4DBD23A8018E8280FB
:104A80001387818F8357070085072310F7008280E3
:104A90009387418F839707000D4733E7E70209E7C4
:104AA000239C018E239E018E8507239AF18E82809E
:104AB0001387C18F8357070085072310F700828073
:104AC000B7170040A3810704238B018E8280411118
:104AD000054506C6EFF0F059B7170040A38107045B
:104AE0000145EFF0905CB240B7E700E0214723A218
:104AF000E71041018280411106C603C7A18F854797
:104B00006315F70203D7E18FC14763F5E70817057F
:104B10000200130565ECEF50813A1305400697C07B
:104B2000FF1FE780205DEF30116A83C7A18FBDE3CF
:104B300083D7E18FA5C3EF80B04B8547238DF18EDE
:104B40009707002083C7E7938DEB97070020938793
:104B5000A78D83A5C70D17050020130525C90921B9
:104B600017050020130585C8812CB24017050200E7
:104B7000130545E741016F50813485651705002015
:104B80001305453D938505E1E12E1705002013052A
:104B9000653CD9BFB240410182801387E18F8357C2
:104BA000070085072310F7008280239F018E238D45
:104BB000018E8280B287411122C42E862E84AA855E
:104BC0003E8506C6EFA0F05D85476303F50001440E
:104BD0002285B240224441018280B287411122C421
:104BE0002E862E84AA853E8506C6EFA0D061854715
:104BF0006303F50001442285B240224441018280D2
:104C0000AE96C206C18293950601C1859307703E98
:104C10000111329563D8B700938686C1939506013A
:104C20000505C185231EB100F24505618280B3866A
:104C3000D540C206C18293950601C1850111118D2F
:104C400063D805009386863E939506017D15C18540
:104C5000231EB100F2450561828079712AC468087B
:104C600006D62EC602CC231E0100EFA090752A8620
:104C70002ACCF2462245B2455D3F2AC82ECA83158A
:104C800041014245EFA09076B25045618280397172
:104C9000480806DE02C8231A0100EFA090722AC855
:104CA0006C002800EFA01077B2474246D24623128C
:104CB000F10222459255A937F2502ACC2ECE21611D
:104CC00082800111480006CE02C023120100EFA02D
:104CD000506FF24092450561828039712AC42EC618
:104CE00028086C0806DEEFA0F072F2476246224503
:104CF0002312F1029256B2451D3F9307803EB387BF
:104D0000A7022ED62AD4F2500315C10221613E9586
:104D100082801307803EB357E50279714C0006D6B6
:104D20003375E5023EC03EC42AC22316A1000A859F
:104D3000EFA0506E924702462245231AF100D24658
:104D4000B2457D3DB2502ACC2ECE456182804111C4
:104D500006C622C426C22A844AC0EFA0F052854764
:104D6000A304F40003290400AA84EFA0906126950F
:104D70006376A900EFA0F060269508C008402244A1
:104D8000B2409244024941016FA0305F9387019085
:104D90009C4399C3A38407005CC923A0A19045BF8D
:104DA0002320050023220500231405004CC52328D9
:104DB0000500232A05008280011122CC2A84680084
:104DC00006CE26CAEFA03037B7E700E0370700105D
:104DD00023A0E718010001001DCC938701909443A4
:104DE000BE8436870DE75C401CC085472314F40061
:104DF000B9E6EFA010432285513FB7E700E037073F
:104E0000001023A0E7106800EFA0103325A0630472
:104E1000E400584BC1BFB7E700E037070010680057
:104E200023A0E710EFA0503117050200130545BD80
:104E3000EFA05130F2406244D24405618280EFA07D
:104E400050541C403E959C4008C09843E365E5FAE9
:104E5000D84BD44B89E6C0CB232A040079BF144336
:104E600063F5A600BA87584BEDB7C0CB58C871B7E9
:104E7000411106C622C426C2EFA05040AA84138462
:104E80000190EFA0103A1C40B30595403E8795E392
:104E90001C408DEF084029E9B24022449244410170
:104EA00082801443014663F5D500A6963386A6405A
:104EB00010C3584B7DF7D84B2384070023A0E19003
:104EC000D84711E301A0884B0297D9B78443EFA0DC
:104ED000504BE3F1A4FC1C40D84B2384070023A0D3
:104EE000E190D8476DF301A083479500D5F72244A0
:104EF000B240924441016FF09FE5011122CC2A8417
:104F0000680006CEEFA03023938701909C4391C3A5
:104F100001E86800EFA05022F240624405618280FF
:104F2000230404006397870203C79700C84B11CF7F
:104F3000A384070011C523A0A190EFF05FE1D1BFCA
:104F4000EFA0103823A00190E9B723A0A190D1B71A
:104F5000BA87D84B5DDFE31DE4FE5848D8CB55BF78
:104F6000411126C2AA842E8506C622C4EFA01032A3
:104F70002A8426855937EFA03031AA876363A400BD
:104F8000A287B24022449CC0DCC09244410182808E
:104F9000411106C6EFA0B03EB24041016FA0B03053
:104FA00005C5411106C622C426C22A84EFA0303DA1
:104FB000AA842285EFA0902D2244B2403385A440DC
:104FC000924441016FA0302E8280054582809387F4
:104FD00081909C4391C703A34700630303000283AE
:104FE0008280938781909C4391C703A3C70063038A
:104FF00003000283828085472382F190238CF19005
:10500000828001456F00703C411122C406C62A848B
:1050100019C123A4A19017050000130505FEEF0098
:10502000503D0145EF00703A0545EF00B05E814507
:105030000145EF10402991450145EF102001C16560
:10504000FD15814601462E85EF00706A0DC097055B
:105050000000938505F81385C15EEFF07FD49705B6
:105060000000938545F813854146EFF07FD3B240A9
:1050700022442382019041018280411106C6EFB093
:10508000A0201307C5FF8D47014563E9E700973767
:10509000020093872793BA9703C50700B2404101E6
:1050A00082806F001072420541816FB0202F42054F
:1050B00041816FB08025411106C622C426C22E84CC
:1050C000AA84EFB060438146014693051020130582
:1050D0001020EF00D061EF00F0768547631CF502E9
:1050E0002384815A1385C157EF10000FA2852685AE
:1050F0000146EF007036938741918C431385C15E62
:10510000EFF01FE62244B24092441385C15E410194
:105110006FF09FCA238A8158F1B74111114506C625
:10512000EF005027B2400945410117C3FF1F670038
:1051300063FC6F00F042420541816FB0801E420562
:1051400041816FB040154111814601469305001819
:105150001305001806C6EF009059B24041016F00D8
:10516000B044011106CE22CC32C42EC6EF007065C9
:10517000B2451384C15E2E85EFB0E031EF0070447C
:1051800022469305803E2285B305B602EFF05FDD2F
:1051900022856244F24005616FF01FC2411106C6CC
:1051A000EF104014B24041018280411106C6EFB0B9
:1051B000402FB2400D054101828083C74190238278
:1051C0000190638B071A011122CC06CE26CA4AC869
:1051D000EF003056238C01902A8463020510EF10F3
:1051E000E0246800EFA02075EFA0307685476314B7
:1051F000F5002382A1906800EFA00074937714005B
:1052000099CF1385C15EEFF05FCF0545EFB0400841
:10521000938781909C4381C79C4391C382979377E6
:10522000240095C713854146EFF03FCD93770404E2
:105230001389819003C7E190CDCB01E70545EFB01D
:1052400020058327090081C79C4B91C382979377E0
:10525000040891CF0545EFB0A003938781909C434C
:1052600099C79C4F89C71355840005898297937706
:10527000042085C7EFB040019147631CF50C1385EE
:10528000C15EEFF09FC70545EFB080009387819026
:105290009C4381C7DC4391C382971374040215C0F9
:1052A00013854146EFF07FC583C7E19081E705454F
:1052B000EFA0107E938781909C4381C7DC4791C308
:1052C000829703C7919185476314F700A38C0190DF
:1052D00083C7819105476394E7002382F190F240F0
:1052E0006244D24442490561828015E70545EFA03A
:1052F000307A8564814513852490EFB000011385D1
:105300004494EFB0A0099365250093F5F50F13853C
:105310004494EFA0907F1306F00F9305B10013851E
:105320004136EF104003938401352685EF10A00627
:1053300083270900E38D07F09C47E38A07F0838603
:10534000D4000386C4008345B1001385413682979B
:10535000FDBDEFA070739547E311F5F41385414649
:10536000EFF0BFB90545EFA0B072938781909C43E1
:10537000E38507F2DC4705B783C78191054763954D
:10538000E7002382F1908280828005C917F701002F
:105390001307476B8547BA8659460C43636AB500C5
:1053A0000C476377B5008E07B69703C54700828028
:1053B00085072107E393C7FE01A07D45828019C9B7
:1053C0000543630A65020546014832987D18335546
:1053D000C802828093B71700B33810018E070E07FA
:1053E00086083E97469861070E083A989307803ED4
:1053F0003308F802D9BF138346009306B6FF636AE9
:10540000D5003145BA866373A700B14613970601EC
:105410004183D1E5130556FF13352500B33810013C
:1054200092080E084698931626003308D840814803
:1054300091E3D148B307180119486375C800A10763
:1054400011C1E11663D307008147B697FD17B3C6B4
:10545000D7029947B386660236971308E70063F4CC
:10546000C7001308C70097F701009387275A8A05DA
:10547000BE959C412947636DF7020A081305E6FFB4
:1054800005088A0717F70100130707591306803E1E
:105490003318A800BA973308C80290433DB7854631
:1054A0000145E39DD5F6130546FF13351500BDB73D
:1054B00002908547631AF5002386B1802384B15A90
:1054C0001385C1576F0050511387C14703274711F8
:1054D0006317F7002386B180238AB158D5B782803D
:1054E000411122C406C62A84EFA0F07FC165FD15D4
:1054F000814601462E85EF00901F11C81385414655
:10550000A285EFF0FFA513854146EFF0FF8A83C720
:10551000E19089CB370500017D152244B24041015D
:105520006F00E0749387019188431A05FDB7C16548
:105530004111FD1522C481462A8401462E8506C6E6
:10554000EF00F01A11C813854146A285EFF05FA164
:1055500013854146EFF05F8683C7E19089CB37051D
:1055600000017D152244B24041016F00207B9387EA
:10557000019188431A05FDB701112386A190A386E6
:10558000A1902AC606CE0D28324519CD93054003B9
:1055900013050074EFA0705793054004F240130503
:1055A000107405616FA07056D14513050074EFA00B
:1055B000D05593054002DDB74111054506C6EF0001
:1055C000B02603C5C19083C7D1906388A700B240BD
:1055D000A386A19041016FF03FFAB2404101828061
:1055E0008547630CF5004111014506C6EF00D02345
:1055F000B240A3860190410182806FF0FFFB5D7194
:1056000003474106A2C4A6C2CAC04EDE52DC56DA27
:105610005AD8328486C65ED662D42387E190BE898A
:105620002A8AAE8A468983470105034B4105814496
:1056300011E3C284631409009307F00F938BC180B8
:105640002386F1805E8C63010A0285476304FA0CAD
:10565000B640264496440649F259625AD25A425BF1
:10566000B25B225C616182800145EF00207723A458
:10567000015C23A6815CAD4713951A0023AAF15C57
:105680008E09EFF09FD0238CA15C23AE01562390AE
:105690003159914723A2F15813491900E147238456
:1056A000F15823A6015823A8215983C70B00238A48
:1056B000F1589307200F63130B00854723ACF15873
:1056C000854723AEF158EFF0DF939387C14703A5D9
:1056D000C7143335A000EFF0BFF01385815CEF00F5
:1056E000F0211385C157EF00302F938741829843F3
:1056F000DC4328083ACC3ECEC52E1305F01F99296D
:105700000968130808F4338804033354880223A873
:1057100081903DBF014536C6EF00406C23A4415D3A
:1057200023AE815C13972A0097F701009387072E19
:10573000BA979C43B24623A0F15E23A2D15E639C3C
:105740000A08130754FF133727002384E15E8547B7
:1057500023AEF1566D14138AC14763E68708AD473F
:1057600063E33709B1472390F15A23A2215B8347B2
:105770000C002384F15A23A6615B8347010623A80A
:10578000F15AEFF01F880325CA143335A000EFF05B
:105790003FE51385815CEF0070161385C157EF005C
:1057A000B023139514001375E50FEF00E064032791
:1057B0004A13854713056073631AF702EFA0103E82
:1057C0009375B50F13056073EFA03034930700385D
:1057D00023A8F190B5BD0147E3994AF7130744FFA9
:1057E000133717009DB72390315B41B7EFA0103BF3
:1057F0009365450093F5F50FF1B7797122D44AD03E
:1058000006D626D22E840349010311CD0546630A2C
:10581000C50A856413859488EFA0503893654500C8
:1058200093F5F50F35AA23A6E15C23A4015CAD47EF
:105830001395160023AAF15C46C642C432C2EFF0AB
:10584000DFB422481246B2480E08238CA15C23A87C
:10585000C15C23AE015623900159914723A2F15810
:1058600093C81800E1472384F15823A6015823A8C0
:1058700011599307200F63130900854723ACF15892
:10588000854723AEF158EFF0CFF79387C14703A5C3
:10589000C7143335A000EFF0BFD41385815CEF004F
:1058A000F0051385C157EF00301393874182984369
:1058B000DC4328083ACC3ECE052C1305F01F592CAA
:1058C00089BF23A4A15C23AEE15C9395260017F663
:1058D00001001306A6132E96104223A0C15E23A238
:1058E000F15ED9EE930757FF93B727002384F15E4B
:1058F000854723AEF1566D179384C14763EAE708E5
:10590000AD4763E70709B1472390F15A23A2115B22
:105910009387C18083C707002384F15A23A6215BA4
:105920008347C10323A8F15AEFF0AFED03A5C414D8
:105930003335A000EFF0DFCA1385815CEF00007CF7
:105940001385C157EF00500903A744169947E31286
:10595000F7EC856413859488EFA050249375B50FF8
:1059600013859488EFA0701A2285EFA0D032864765
:10597000B250225423AAF190925402594561828078
:105980008147E395A6F6930747FF93B71700B9BF82
:105990002390015BA5BF397126DAAA84014506DE92
:1059A0002ED622DC4AD836843289EFF07FC3268592
:1059B000092D3257854781480148814613068025C5
:1059C000BA853ECA01458D4702C802C602C402C25A
:1059D00002C0EFF0DFC20145EFF09FB0EFF04FDB08
:1059E000AA842685EFF0CFDB636D850005452AD6B6
:1059F000EFF0AFF2F25062543255D2544259216165
:105A00008280EF00300E42054185E35CA9FC014530
:105A1000F9BF411106C6EFF03FBA81460146814504
:105A20000145F121B2404101B5AC411106C6B7476D
:105A3000004009472380E700A38007002380E74058
:105A4000A380074081457D55EFE0A07081457D55DD
:105A5000EFE0807A85450565EFE0A06F8545096533
:105A6000EFE0206F89451165EFE0A06E8545216567
:105A7000EFE0206E894537050800EFE0E0778945C3
:105A80000965EFE06077854537058000EFE0C07677
:105A9000894513050009EFE0207689452145EFE0AF
:105AA000406B894513050004EFE00075B24089455D
:105AB000094541016FE04074411106C6EFA0C07C6A
:105AC00009E9EFA06069EFA0101EB24041016FA08C
:105AD0006034EFA0607B9947E319F5FEDDB72E86B1
